{
  "_format": "hh-sol-artifact-1",
  "contractName": "EscrowsGenerator",
  "sourceName": "contracts/EscrowGenerator.sol",
  "abi": [
    {
      "anonymous": false,
      "inputs": [
        {
          "indexed": false,
          "internalType": "uint256",
          "name": "",
          "type": "uint256"
        }
      ],
      "name": "Approved",
      "type": "event"
    },
    {
      "anonymous": false,
      "inputs": [],
      "name": "Created",
      "type": "event"
    },
    {
      "inputs": [
        {
          "internalType": "uint256",
          "name": "_id",
          "type": "uint256"
        }
      ],
      "name": "approve",
      "outputs": [],
      "stateMutability": "nonpayable",
      "type": "function"
    },
    {
      "inputs": [
        {
          "internalType": "address",
          "name": "_arbiter",
          "type": "address"
        },
        {
          "internalType": "address",
          "name": "_beneficiary",
          "type": "address"
        }
      ],
      "name": "createEscrow",
      "outputs": [],
      "stateMutability": "payable",
      "type": "function"
    },
    {
      "inputs": [],
      "name": "escrowCount",
      "outputs": [
        {
          "internalType": "uint256",
          "name": "",
          "type": "uint256"
        }
      ],
      "stateMutability": "view",
      "type": "function"
    },
    {
      "inputs": [
        {
          "internalType": "uint256",
          "name": "",
          "type": "uint256"
        }
      ],
      "name": "escrows",
      "outputs": [
        {
          "internalType": "uint256",
          "name": "id",
          "type": "uint256"
        },
        {
          "internalType": "address",
          "name": "arbiter",
          "type": "address"
        },
        {
          "internalType": "address",
          "name": "beneficiary",
          "type": "address"
        },
        {
          "internalType": "address",
          "name": "depositor",
          "type": "address"
        },
        {
          "internalType": "bool",
          "name": "isApproved",
          "type": "bool"
        },
        {
          "internalType": "uint256",
          "name": "balance",
          "type": "uint256"
        }
      ],
      "stateMutability": "view",
      "type": "function"
    },
    {
      "inputs": [],
      "name": "getEscrows",
      "outputs": [
        {
          "components": [
            {
              "internalType": "uint256",
              "name": "id",
              "type": "uint256"
            },
            {
              "internalType": "address",
              "name": "arbiter",
              "type": "address"
            },
            {
              "internalType": "address",
              "name": "beneficiary",
              "type": "address"
            },
            {
              "internalType": "address",
              "name": "depositor",
              "type": "address"
            },
            {
              "internalType": "bool",
              "name": "isApproved",
              "type": "bool"
            },
            {
              "internalType": "uint256",
              "name": "balance",
              "type": "uint256"
            }
          ],
          "internalType": "struct EscrowsGenerator.Escrow[]",
          "name": "",
          "type": "tuple[]"
        }
      ],
      "stateMutability": "view",
      "type": "function"
    }
  ],
  "bytecode": "0x60806040526000805534801561001457600080fd5b5061111e806100246000396000f3fe60806040526004361061004a5760003560e01c8063012f52ee1461004f578063675ac67a146100915780636afcb6da146100bc578063834cc6fc146100e7578063b759f95414610103575b600080fd5b34801561005b57600080fd5b5061007660048036038101906100719190610b7f565b61012c565b60405161008896959493929190610c17565b60405180910390f35b34801561009d57600080fd5b506100a66101d5565b6040516100b39190610c78565b60405180910390f35b3480156100c857600080fd5b506100d16101db565b6040516100de9190610dea565b60405180910390f35b61010160048036038101906100fc9190610e38565b6106c1565b005b34801561010f57600080fd5b5061012a60048036038101906101259190610b7f565b61089c565b005b60016020528060005260406000206000915090508060000154908060010160009054906101000a900473ffffffffffffffffffffffffffffffffffffffff16908060020160009054906101000a900473ffffffffffffffffffffffffffffffffffffffff16908060030160009054906101000a900473ffffffffffffffffffffffffffffffffffffffff16908060030160149054906101000a900460ff16908060040154905086565b60005481565b60606000805b60005481101561040d576000600160008381526020019081526020016000206040518060c0016040529081600082015481526020016001820160009054906101000a900473ffffffffffffffffffffffffffffffffffffffff1673ffffffffffffffffffffffffffffffffffffffff1673ffffffffffffffffffffffffffffffffffffffff1681526020016002820160009054906101000a900473ffffffffffffffffffffffffffffffffffffffff1673ffffffffffffffffffffffffffffffffffffffff1673ffffffffffffffffffffffffffffffffffffffff1681526020016003820160009054906101000a900473ffffffffffffffffffffffffffffffffffffffff1673ffffffffffffffffffffffffffffffffffffffff1673ffffffffffffffffffffffffffffffffffffffff1681526020016003820160149054906101000a900460ff1615151515815260200160048201548152505090503373ffffffffffffffffffffffffffffffffffffffff16816020015173ffffffffffffffffffffffffffffffffffffffff1614806103ab57503373ffffffffffffffffffffffffffffffffffffffff16816040015173ffffffffffffffffffffffffffffffffffffffff16145b806103e557503373ffffffffffffffffffffffffffffffffffffffff16816060015173ffffffffffffffffffffffffffffffffffffffff16145b156103f95782806103f590610ea7565b9350505b50808061040590610ea7565b9150506101e1565b5060008167ffffffffffffffff81111561042a57610429610eef565b5b60405190808252806020026020018201604052801561046357816020015b610450610aca565b8152602001906001900390816104485790505b5090506000915060005b6000548110156106b8576000600160008381526020019081526020016000206040518060c0016040529081600082015481526020016001820160009054906101000a900473ffffffffffffffffffffffffffffffffffffffff1673ffffffffffffffffffffffffffffffffffffffff1673ffffffffffffffffffffffffffffffffffffffff1681526020016002820160009054906101000a900473ffffffffffffffffffffffffffffffffffffffff1673ffffffffffffffffffffffffffffffffffffffff1673ffffffffffffffffffffffffffffffffffffffff1681526020016003820160009054906101000a900473ffffffffffffffffffffffffffffffffffffffff1673ffffffffffffffffffffffffffffffffffffffff1673ffffffffffffffffffffffffffffffffffffffff1681526020016003820160149054906101000a900460ff1615151515815260200160048201548152505090503373ffffffffffffffffffffffffffffffffffffffff16816020015173ffffffffffffffffffffffffffffffffffffffff16148061063757503373ffffffffffffffffffffffffffffffffffffffff16816040015173ffffffffffffffffffffffffffffffffffffffff16145b8061067157503373ffffffffffffffffffffffffffffffffffffffff16816060015173ffffffffffffffffffffffffffffffffffffffff16145b156106a4578083858151811061068a57610689610f1e565b5b602002602001018190525083806106a090610ea7565b9450505b5080806106b090610ea7565b91505061046d565b50809250505090565b6040518060c0016040528060005481526020018373ffffffffffffffffffffffffffffffffffffffff1681526020018273ffffffffffffffffffffffffffffffffffffffff1681526020013373ffffffffffffffffffffffffffffffffffffffff1681526020016000151581526020013481525060016000805481526020019081526020016000206000820151816000015560208201518160010160006101000a81548173ffffffffffffffffffffffffffffffffffffffff021916908373ffffffffffffffffffffffffffffffffffffffff16021790555060408201518160020160006101000a81548173ffffffffffffffffffffffffffffffffffffffff021916908373ffffffffffffffffffffffffffffffffffffffff16021790555060608201518160030160006101000a81548173ffffffffffffffffffffffffffffffffffffffff021916908373ffffffffffffffffffffffffffffffffffffffff16021790555060808201518160030160146101000a81548160ff02191690831515021790555060a082015181600401559050507f9adeddf84386b336eb7b3e18e7a6099be08fd81ea5d5142f4d2b630f8d20cf0160405160405180910390a160008081548092919061089390610ea7565b91905055505050565b60006001600083815260200190815260200160002090508060010160009054906101000a900473ffffffffffffffffffffffffffffffffffffffff1673ffffffffffffffffffffffffffffffffffffffff163373ffffffffffffffffffffffffffffffffffffffff1614610945576040517f08c379a000000000000000000000000000000000000000000000000000000000815260040161093c90610faa565b60405180910390fd5b8060030160149054906101000a900460ff1615610997576040517f08c379a000000000000000000000000000000000000000000000000000000000815260040161098e90611016565b60405180910390fd5b60008160040154905060008260020160009054906101000a900473ffffffffffffffffffffffffffffffffffffffff1673ffffffffffffffffffffffffffffffffffffffff16826040516109ea90611067565b60006040518083038185875af1925050503d8060008114610a27576040519150601f19603f3d011682016040523d82523d6000602084013e610a2c565b606091505b5050905080610a70576040517f08c379a0000000000000000000000000000000000000000000000000000000008152600401610a67906110c8565b60405180910390fd5b7f3ad93af63cb7967b23e4fb500b7d7d28b07516325dcf341f88bebf959d82c1cb82604051610a9f9190610c78565b60405180910390a160018360030160146101000a81548160ff02191690831515021790555050505050565b6040518060c0016040528060008152602001600073ffffffffffffffffffffffffffffffffffffffff168152602001600073ffffffffffffffffffffffffffffffffffffffff168152602001600073ffffffffffffffffffffffffffffffffffffffff168152602001600015158152602001600081525090565b600080fd5b6000819050919050565b610b5c81610b49565b8114610b6757600080fd5b50565b600081359050610b7981610b53565b92915050565b600060208284031215610b9557610b94610b44565b5b6000610ba384828501610b6a565b91505092915050565b610bb581610b49565b82525050565b600073ffffffffffffffffffffffffffffffffffffffff82169050919050565b6000610be682610bbb565b9050919050565b610bf681610bdb565b82525050565b60008115159050919050565b610c1181610bfc565b82525050565b600060c082019050610c2c6000830189610bac565b610c396020830188610bed565b610c466040830187610bed565b610c536060830186610bed565b610c606080830185610c08565b610c6d60a0830184610bac565b979650505050505050565b6000602082019050610c8d6000830184610bac565b92915050565b600081519050919050565b600082825260208201905092915050565b6000819050602082019050919050565b610cc881610b49565b82525050565b610cd781610bdb565b82525050565b610ce681610bfc565b82525050565b60c082016000820151610d026000850182610cbf565b506020820151610d156020850182610cce565b506040820151610d286040850182610cce565b506060820151610d3b6060850182610cce565b506080820151610d4e6080850182610cdd565b5060a0820151610d6160a0850182610cbf565b50505050565b6000610d738383610cec565b60c08301905092915050565b6000602082019050919050565b6000610d9782610c93565b610da18185610c9e565b9350610dac83610caf565b8060005b83811015610ddd578151610dc48882610d67565b9750610dcf83610d7f565b925050600181019050610db0565b5085935050505092915050565b60006020820190508181036000830152610e048184610d8c565b905092915050565b610e1581610bdb565b8114610e2057600080fd5b50565b600081359050610e3281610e0c565b92915050565b60008060408385031215610e4f57610e4e610b44565b5b6000610e5d85828601610e23565b9250506020610e6e85828601610e23565b9150509250929050565b7f4e487b7100000000000000000000000000000000000000000000000000000000600052601160045260246000fd5b6000610eb282610b49565b91507fffffffffffffffffffffffffffffffffffffffffffffffffffffffffffffffff8203610ee457610ee3610e78565b5b600182019050919050565b7f4e487b7100000000000000000000000000000000000000000000000000000000600052604160045260246000fd5b7f4e487b7100000000000000000000000000000000000000000000000000000000600052603260045260246000fd5b600082825260208201905092915050565b7f4f6e6c7920617262697465722063616e20617070726f76650000000000000000600082015250565b6000610f94601883610f4d565b9150610f9f82610f5e565b602082019050919050565b60006020820190508181036000830152610fc381610f87565b9050919050565b7f457363726f7720616c726561647920617070726f766564000000000000000000600082015250565b6000611000601783610f4d565b915061100b82610fca565b602082019050919050565b6000602082019050818103600083015261102f81610ff3565b9050919050565b600081905092915050565b50565b6000611051600083611036565b915061105c82611041565b600082019050919050565b600061107282611044565b9150819050919050565b7f4661696c656420746f2073656e64204574686572000000000000000000000000600082015250565b60006110b2601483610f4d565b91506110bd8261107c565b602082019050919050565b600060208201905081810360008301526110e1816110a5565b905091905056fea2646970667358221220d590465d0801bf82b4598a41d5a5d37049f22f17f0961b725cb241254fd70d4664736f6c63430008110033",
  "linkReferences": {},
  "deployedLinkReferences": {}
}